<!DOCTYPE html>
<html>
    <head>
    <meta charset="utf-8">
    <meta http-equiv="X-UA-Compatible" content="IE=edge">
    <title>How to generate a 2-3 multisig Anoncoin address</title>
    <meta name="viewport" content="width=device-width">
    <meta name="description" content="Anoncoin(ANC) is a unique decentralized peer to peer internet cryptocurrency that provides for its users. I2P and Tor compatible, it is resistant to crackdowns from hostile authorities.  ">
    <meta name="keywords" content="" /> 
    <link rel="canonical" href="https://anoncoin.net/How_to_generate_a_2-3_multisig_Anoncoin_address/">
    <link rel="alternate" type="application/rss+xml" title="RSS" href="/feed.xml">

    <!-- Custom CSS & Bootstrap Core CSS - Uses Bootswatch Flatly Theme: http://bootswatch.com/flatly/ -->
    <link rel="stylesheet" href=" /style.css ">

    <!-- Custom Fonts -->
    <link rel="stylesheet" href=" /css/font-awesome/css/font-awesome.min.css ">
    <link href="//fonts.googleapis.com/css?family=Montserrat:400,700" rel="stylesheet" type="text/css">
    <link href="//fonts.googleapis.com/css?family=Lato:400,700,400italic,700italic" rel="stylesheet" type="text/css">

    <!-- HTML5 Shim and Respond.js IE8 support of HTML5 elements and media queries -->
    <!-- WARNING: Respond.js doesn't work if you view the page via file:// -->
    <!--[if lt IE 9]>
        <script src="https://oss.maxcdn.com/libs/html5shiv/3.7.0/html5shiv.js"></script>
        <script src="https://oss.maxcdn.com/libs/respond.js/1.4.2/respond.min.js"></script>
    <![endif]-->
</head>
    <body id="page-top" class="index">
    <!-- Navigation -->
<nav class="navbar navbar-default navbar-fixed-top">
    <div class="container">
        <!-- Brand and toggle get grouped for better mobile display -->
        <div class="navbar-header page-scroll">
            <button type="button" class="navbar-toggle" data-toggle="collapse" data-target="#navbar-dropping">
                <span class="sr-only">Toggle navigation</span>
                <span class="icon-bar"></span>
                <span class="icon-bar"></span>
                <span class="icon-bar"></span>
            </button>
            <a class="navbar-brand" href="/">Anoncoin</a>
        </div>

        <!-- Collect the nav links, forms, and other content for toggling -->
        <nav id="navbar-dropping" class="collapse navbar-collapse">
            <ul class="nav navbar-nav">
                    
                <li class="dropdown ">
                    <a href="/About_Anoncoin/" class="dropdown-toggle" data-toggle="dropdown" role="button" aria-haspopup="true"
                        aria-expanded="false">About
                        <span class="caret"></span>
                    </a>
                    <ul class="dropdown-menu">
                         
                        <li>
                            <a href="/About_Anoncoin/">About Anoncoin</a>
                        </li>
                          
                        <li>
                            <a href="/Anoncoin_in_the_news/">Anoncoin in the news</a>
                        </li>
                          
                        <li>
                            <a href="/Anoncoin_development_team/">Anoncoin development team</a>
                        </li>
                          
                        <li>
                            <a href="https://github.com/Anoncoin/project/tree/master/roadmap">Roadmap</a>
                        </li>
                          
                        <li>
                            <a href="/Donate/">Donate</a>
                        </li>
                         
                    </ul>
                </li>
                    
                <li class="dropdown ">
                    <a href="/Download/" class="dropdown-toggle" data-toggle="dropdown" role="button" aria-haspopup="true"
                        aria-expanded="false">Downloads
                        <span class="caret"></span>
                    </a>
                    <ul class="dropdown-menu">
                         
                        <li>
                            <a href="/Download/#windowsdownload">Windows</a>
                        </li>
                          
                        <li>
                            <a href="/Download/#macdownload">Mac</a>
                        </li>
                          
                        <li>
                            <a href="/Download/#linuxdownload">Linux</a>
                        </li>
                         
                    </ul>
                </li>
                    
                <li class="dropdown ">
                    <a href="/Blog/" class="dropdown-toggle" data-toggle="dropdown" role="button" aria-haspopup="true"
                        aria-expanded="false">Resources
                        <span class="caret"></span>
                    </a>
                    <ul class="dropdown-menu">
                         
                        <li>
                            <a href="/Blog/">Blog</a>
                        </li>
                          
                        <li>
                            <a href="/FAQ/">FAQ</a>
                        </li>
                          
                        <li>
                            <a href="/Wiki/">Wiki</a>
                        </li>
                          
                        <li>
                            <a href="/How_to_guides/">How to guides</a>
                        </li>
                         
                    </ul>
                </li>
                    
                <li class="dropdown ">
                    <a href="/Exchanges/" class="dropdown-toggle" data-toggle="dropdown" role="button" aria-haspopup="true"
                        aria-expanded="false">Services
                        <span class="caret"></span>
                    </a>
                    <ul class="dropdown-menu">
                         
                        <li>
                            <a href="/Exchanges/">Exchanges</a>
                        </li>
                          
                        <li>
                            <a href="http://anoncash.net">Blockchain explorer</a>
                        </li>
                          
                        <li>
                            <a href="/Mining_pools/">Mining pools</a>
                        </li>
                          
                        <li role="separator" class="divider"></li>
                          
                        <li>
                            <a href="/Places_that_accept_Anoncoin/">Places that accept Anoncoin</a>
                        </li>
                         
                    </ul>
                </li>
                    
                <li class="dropdown ">
                    <a href="/Community/" class="dropdown-toggle" data-toggle="dropdown" role="button" aria-haspopup="true"
                        aria-expanded="false">Community
                        <span class="caret"></span>
                    </a>
                    <ul class="dropdown-menu">
                         
                        <li>
                            <a href="https://join.slack.com/t/anoncoin/shared_invite/enQtMjcxMzUxMjk5ODYwLTU0OTJhNmIxNzYyY2JiMzUxOGZhMjYzNmQ3YmViNWM1OWIxZGNlMGY0Zjg1NzdhMDAyZmRiYTFhNTM1OWZiYTU">Slack</a>
                        </li>
                          
                        <li>
                            <a href="https://bitcointalk.org/index.php?topic=227287.0">Bitcointalk</a>
                        </li>
                          
                        <li>
                            <a href="https://www.reddit.com/r/Anoncoin/">Reddit</a>
                        </li>
                          
                        <li>
                            <a href="https://www.youtube.com/channel/UCwKSmUNcoRrBwm-kdsl1n2w">YouTube</a>
                        </li>
                          
                        <li>
                            <a href="https://twitter.com/anoncoinproject">Official Twitter</a>
                        </li>
                          
                        <li>
                            <a href="https://www.facebook.com/Anoncoin/">Facebook page</a>
                        </li>
                         
                    </ul>
                </li>
                 
            </ul>
        </nav>
        <!-- /.navbar-collapse -->
    </div>
    <!-- /.container-fluid -->
</nav>
    <!-- About Section -->
<section class="article" id="about"></section>
<div class="container">
    <div class="row">
        <div class="col-lg-12 text-center">
            <h1>How to generate a 2-3 multisig Anoncoin address</h1>
        </div>
    </div>
    <div class="row">
        <div class="col-lg-12">
            <p>

    

    <h3 id="to-generate-a-new-2-3-multisig-address">To generate a new 2-3 multisig address</h3>

<ul>
  <li>At first, the three clients make each a new address pair, keep for themselves their private key and give the pubkey to the two other persons.</li>
</ul>

<p>In the ANC-qt debug console type the following (an example is shown):</p>

<div class="highlighter-rouge"><div class="highlight"><pre class="highlight"><code>getnewaddress
→ Aa8TraYPKPwGCaS8ftxayWNe8GtfPvN1j8
</code></pre></div></div>

<div class="highlighter-rouge"><div class="highlight"><pre class="highlight"><code>validateaddress AexjXQLZkPzYk29gANfSmCNzCegw4czX3m

→ {
    “isvalid” : true,
    “address” : “AexjXQLZkPzYk29gANfSmCNzCegw4czX3m”,
    “ismine” : true,
    “iswatchonly” : false,
    “isscript” : false,
    “pubkey” : “0334e8a5998704b0371233e97a2fbf0f3cd0b66894b6644b2eadf466e27959f274”,
    “iscompressed” : true,
    “account” : ""
}
</code></pre></div></div>

<div class="highlighter-rouge"><div class="highlight"><pre class="highlight"><code>dumpprivkey AexjXQLZkPzYk29gANfSmCNzCegw4czX3m

→ PR*******privatekeyofthefirstuserkeepsecure!*******Cm
</code></pre></div></div>

<p>The same is done by the two other persons who want to sign the multisig address.</p>

<!-- -->

<p><strong>Each keep securely their privatekey</strong></p>

<!-- -->

<p>Each give to the other two persons their pubkey</p>

<ul>
  <li>The 2-3 multisig is then generated by each user with the three corresponding pubkey, 2 are necessary to spend in this case:</li>
</ul>

<div class="highlighter-rouge"><div class="highlight"><pre class="highlight"><code>createmultisig 2 '[“029cd9c7df6ba11f173f3d0b9db8f6d228c64ad9c76effb4a334f6ad401fff6324”,“0334e8a5998704b0371233e97a2fbf0f3cd0b66894b6644b2eadf466e27959f274”,“026e4494155b7706ba1fdbc999c8124c03bc8b06e7c9c2f31efc60d2d205990dea”]'

→ 
{
    “address” : “3Q29ysL3DNsnyybhy8ErfeqfPTDhvgUN62”,
    **“redeemScript” : “5221029cd9c7df6ba11f173f3d0b9db8f6d228c64ad9c76effb4a334f6ad401fff6324210334e8a5998704b0371233e97a2fbf0f3cd0b66894b6644b2eadf466e27959f27421026e4494155b7706ba1fdbc999c8124c03bc8b06e7c9c2f31efc60d2d205990dea53ae”**
}
</code></pre></div></div>

<p><strong>The redeemScript is very important and shall be kept by all participants, without it funds cannot be recovered from the multisig address!</strong></p>

<!-- -->

<p>NB: the order of the pubkeys is important! (There is obtained another address and redeemscript if the pubkeys are permuted)</p>

<h3 id="send-some-coins-to-the-multisig-address">Send some coins to the multisig address</h3>

<ul>
  <li>Easiest way is to send the coins using the wallet and get the Transaction ID by right clicking on the transaction to show the transaction details and then copy the TXID.</li>
</ul>

<!-- -->

<ul>
  <li>Otherwise it can be done by using the debug console:</li>
</ul>

<p>In the ANC-qt debug console type the following:</p>
<div class="highlighter-rouge"><div class="highlight"><pre class="highlight"><code>sendtoaddress “3Q29ysL3DNsnyybhy8ErfeqfPTDhvgUN62” 2.5

→ 6181daa32d44a1e1bfb3206a3f5726e0dbb045d1fbd32ec4eaf0684b391d9ae4
</code></pre></div></div>

<p>It reply the TXID. If needed, this can be recovered later using listtransactions. <strong>The TXID is very important and shall be kept.</strong></p>

<div class="highlighter-rouge"><div class="highlight"><pre class="highlight"><code>listtransactions * 1 0

→ 
[
    {
        “account” : "",
        “address” : “3Q29ysL3DNsnyybhy8ErfeqfPTDhvgUN62”,
        “category” : “send”,
        “amount” : -2.50000000,
        “fee” : 0.00000000,
        “confirmations” : 0,
        “txid” : “6181daa32d44a1e1bfb3206a3f5726e0dbb045d1fbd32ec4eaf0684b391d9ae4”,
        “walletconflicts” : [
        ],
        “time” : 1423172987,
        “timereceived” : 1423172987
    }
]
</code></pre></div></div>

<h3 id="to-spend-all-coins-from-the-multisig-address-to-a-new-address">To spend all coins from the multisig address to a new address</h3>

<ul>
  <li>If you have the TXID, using the console :</li>
</ul>

<p>Put <code class="highlighter-rouge">txindex=1</code> in anoncoin.conf, launch <code class="highlighter-rouge">anoncoin-qt –reindex</code> once to reindex then type in the console</p>

<!-- -->

<div class="highlighter-rouge"><div class="highlight"><pre class="highlight"><code>getrawtransaction 6181daa32d44a1e1bfb3206a3f5726e0dbb045d1fbd32ec4eaf0684b391d9ae4

→ 01000000018a5e64909e1142aee737b8d64f57b1f0985572079c1d10881098fba0f5d9cd9d000000004847304402205c6ef4bb061789f4ea9b393272853948a558f1811d549c62b3667361201b8422022028ca09ea0403801b6794a0d2b69f836e352774a7c28c2208ae98613eff85bcc901ffffffff0180b2e60e0000000017a914f4f1657c98e44837486c97857fa12afc7daefc888700000000
</code></pre></div></div>

<div class="highlighter-rouge"><div class="highlight"><pre class="highlight"><code>decoderawtransaction 01000000018a5e64909e1142aee737b8d64f57b1f0985572079c1d10881098fba0f5d9cd9d000000004847304402205c6ef4bb061789f4ea9b393272853948a558f1811d549c62b3667361201b8422022028ca09ea0403801b6794a0d2b69f836e352774a7c28c2208ae98613eff85bcc901ffffffff0180b2e60e0000000017a914f4f1657c98e44837486c97857fa12afc7daefc888700000000

→ 
{
    **“txid” : “6181daa32d44a1e1bfb3206a3f5726e0dbb045d1fbd32ec4eaf0684b391d9ae4”,**
    “version” : 1,
    “locktime” : 0,
    “vin” : [
        {
            “txid” : “9dcdd9f5a0fb981088101d9c07725598f0b1574fd6b837e7ae42119e90645e8a”,
            “vout” : 0,
            “scriptSig” : {
                “asm” : “304402205c6ef4bb061789f4ea9b393272853948a558f1811d549c62b3667361201b8422022028ca09ea0403801b6794a0d2b69f836e352774a7c28c2208ae98613eff85bcc901”,
                “hex” : “47304402205c6ef4bb061789f4ea9b393272853948a558f1811d549c62b3667361201b8422022028ca09ea0403801b6794a0d2b69f836e352774a7c28c2208ae98613eff85bcc901”
                },
            “sequence” : 4294967295
            }
        ],
        “vout” : [
            {
            **“value” : 2.50000000,**
            **“n” : 0,**
            “scriptPubKey” : {
            “asm” : “OP_HASH160 f4f1657c98e44837486c97857fa12afc7daefc88 OP_EQUAL”,
            **“hex” : “a914f4f1657c98e44837486c97857fa12afc7daefc8887”,**
            “reqSigs” : 1,
            “type” : “scripthash”,
            “addresses” : [
            “3Q29ysL3DNsnyybhy8ErfeqfPTDhvgUN62”
            ]
        }
        }
    ]
}
</code></pre></div></div>

<ul>
  <li>Alternatively, if you only know the address <code class="highlighter-rouge">3Q29ysL3DNsnyybhy8ErfeqfPTDhvgUN62</code> and you need the TXID:</li>
</ul>

<p>Using the ANC coin explorer, search for the address `3Q29ysL3DNsnyybhy8ErfeqfPTDhvgUN62, open the incoming transaction and get the TXID, the N and the scriptpubkey of its output:</p>

<p><a href="https://coinplorer.com/ANC/Transactions/6181daa32d44a1e1bfb3206a3f5726e0dbb045d1fbd32ec4eaf0684b391d9ae4">Coinplorer (https://coinplorer.com/ANC/Transactions/6181daa32d44a1e1bfb3206a3f5726e0dbb045d1fbd32ec4eaf0684b391d9ae4)</a></p>

<div class="highlighter-rouge"><div class="highlight"><pre class="highlight"><code>**TXID 6181daa32d44a1e1bfb3206a3f5726e0dbb045d1fbd32ec4eaf0684b391d9ae4**
*Outputs*
**2.5 ANC** 3Q29ysL3DNsnyybhy8ErfeqfPTDhvgUN62
**N: 0**
Required sigs: 1
Type: scripthash
Script pub key (ASM): OP_HASH160 f4f1657c98e44837486c97857fa12afc7daefc88 OP_EQUAL
**Script pub key (hex): a914f4f1657c98e44837486c97857fa12afc7daefc8887**
</code></pre></div></div>

<p>So to spend the 2-3 multisig transaction we need as minimal data the TXID to the multisig address + redeemscript + 2 private keys out of 3.</p>

<p>Now that we have those data, we can generate a new ANC address that will receive the funds and proceed to the actual transaction.</p>

<ul>
  <li>Generate a new receiving ANC address:</li>
</ul>

<div class="highlighter-rouge"><div class="highlight"><pre class="highlight"><code>Getnewaddress

→ AdevgrKr8CnxqywbwTCC2So4WgKwb9jNEE
</code></pre></div></div>

<ul>
  <li>Using redeemscript and the new receiving ANC address, create the unsigned raw transaction, vout must be equal to N above and for simplicity the value shall be equal to the value put in the transaction:</li>
</ul>

<div class="highlighter-rouge"><div class="highlight"><pre class="highlight"><code>createrawtransaction '[{“txid”:“6181daa32d44a1e1bfb3206a3f5726e0dbb045d1fbd32ec4eaf0684b391d9ae4”,“vout”:0,“scriptPubKey”:“a914f4f1657c98e44837486c97857fa12afc7daefc8887”,“redeemScript”:“5221029cd9c7df6ba11f173f3d0b9db8f6d228c64ad9c76effb4a334f6ad401fff6324210334e8a5998704b0371233e97a2fbf0f3cd0b66894b6644b2eadf466e27959f27421026e4494155b7706ba1fdbc999c8124c03bc8b06e7c9c2f31efc60d2d205990dea53ae”}]' '{“AdevgrKr8CnxqywbwTCC2So4WgKwb9jNEE”:2.5}'

→ 0100000001e49a1d394b68f0eac42ed3fbd145b0dbe026573f6a20b3bfe1a1442da3da81610000000000ffffffff0180b2e60e000000001976a914f00264c627281ab0ef36a669ff9deeaf28f0143888ac00000000
</code></pre></div></div>

<ul>
  <li>Two participants can then sign the raw transaction with 2 private keys out of the 3 possible:</li>
</ul>

<p>Participant one sign the raw transaction:</p>

<div class="highlighter-rouge"><div class="highlight"><pre class="highlight"><code>signrawtransaction “0100000001e49a1d394b68f0eac42ed3fbd145b0dbe026573f6a20b3bfe1a1442da3da81610000000000ffffffff0180b2e60e000000001976a914f00264c627281ab0ef36a669ff9deeaf28f0143888ac00000000” '[{“txid”:“6181daa32d44a1e1bfb3206a3f5726e0dbb045d1fbd32ec4eaf0684b391d9ae4”,“vout”:0,“scriptPubKey”:“a914f4f1657c98e44837486c97857fa12afc7daefc8887”,“redeemScript”:“5221029cd9c7df6ba11f173f3d0b9db8f6d228c64ad9c76effb4a334f6ad401fff6324210334e8a5998704b0371233e97a2fbf0f3cd0b66894b6644b2eadf466e27959f27421026e4494155b7706ba1fdbc999c8124c03bc8b06e7c9c2f31efc60d2d205990dea53ae”}]' '[“PR*******privatekeyofthefirstuserkeepsecure!*******Cm”]'

→ {
    “hex” :  “0100000001e49a1d394b68f0eac42ed3fbd145b0dbe026573f6a20b3bfe1a1442da3da816100000000b40047304402207b57bfe7c99fce1cc29a957f106f9e5cf389a4f1b18bf5695822e4c8f02a99f802206af8b8ffd2f2aebdb0b704837259833341beff894b17c264461d679717bc5d86014c695221029cd9c7df6ba11f173f3d0b9db8f6d228c64ad9c76effb4a334f6ad401fff6324210334e8a5998704b0371233e97a2fbf0f3cd0b66894b6644b2eadf466e27959f27421026e4494155b7706ba1fdbc999c8124c03bc8b06e7c9c2f31efc60d2d205990dea53aeffffffff0180b2e60e000000001976a914f00264c627281ab0ef36a669ff9deeaf28f0143888ac00000000”,
    “complete” : false
}
</code></pre></div></div>

<p>The second private key can now be used to finish to sign the resulting rawtransaction:</p>

<div class="highlighter-rouge"><div class="highlight"><pre class="highlight"><code>signrawtransaction “0100000001e49a1d394b68f0eac42ed3fbd145b0dbe026573f6a20b3bfe1a1442da3da816100000000b40047304402207b57bfe7c99fce1cc29a957f106f9e5cf389a4f1b18bf5695822e4c8f02a99f802206af8b8ffd2f2aebdb0b704837259833341beff894b17c264461d679717bc5d86014c695221029cd9c7df6ba11f173f3d0b9db8f6d228c64ad9c76effb4a334f6ad401fff6324210334e8a5998704b0371233e97a2fbf0f3cd0b66894b6644b2eadf466e27959f27421026e4494155b7706ba1fdbc999c8124c03bc8b06e7c9c2f31efc60d2d205990dea53aeffffffff0180b2e60e000000001976a914f00264c627281ab0ef36a669ff9deeaf28f0143888ac00000000” '[{“txid”:“6181daa32d44a1e1bfb3206a3f5726e0dbb045d1fbd32ec4eaf0684b391d9ae4”,“vout”:0,“scriptPubKey”:“a914f4f1657c98e44837486c97857fa12afc7daefc8887”,“redeemScript”:“5221029cd9c7df6ba11f173f3d0b9db8f6d228c64ad9c76effb4a334f6ad401fff6324210334e8a5998704b0371233e97a2fbf0f3cd0b66894b6644b2eadf466e27959f27421026e4494155b7706ba1fdbc999c8124c03bc8b06e7c9c2f31efc60d2d205990dea53ae”}]' '[“PA*******privatekeyoftheseconduserkeepsecure!*******Dh”]'

→ {
    “hex” : 
    “0100000001e49a1d394b68f0eac42ed3fbd145b0dbe026573f6a20b3bfe1a1442da3da816100000000fdfd0000483045022100a500d25270c9c8729fa215413476094b079faa01241f2a3a26f0e9d4b53d73870220725b930ae1de55cb40dae229e2f3f446e60c94da3afc907c03a4f831b6bd82e40147304402207b57bfe7c99fce1cc29a957f106f9e5cf389a4f1b18bf5695822e4c8f02a99f802206af8b8ffd2f2aebdb0b704837259833341beff894b17c264461d679717bc5d86014c695221029cd9c7df6ba11f173f3d0b9db8f6d228c64ad9c76effb4a334f6ad401fff6324210334e8a5998704b0371233e97a2fbf0f3cd0b66894b6644b2eadf466e27959f27421026e4494155b7706ba1fdbc999c8124c03bc8b06e7c9c2f31efc60d2d205990dea53aeffffffff0180b2e60e000000001976a914f00264c627281ab0ef36a669ff9deeaf28f0143888ac00000000”
    “complete” : true
}
</code></pre></div></div>

<p>The status would be “complete” : false if the private keys entered are less than the private keys required.</p>

<ul>
  <li>Send and broadcast the raw transaction (must be connected to the network)</li>
</ul>

<div class="highlighter-rouge"><div class="highlight"><pre class="highlight"><code>sendrawtransaction 0100000001e49a1d394b68f0eac42ed3fbd145b0dbe026573f6a20b3bfe1a1442da3da816100000000fdfd0000483045022100a500d25270c9c8729fa215413476094b079faa01241f2a3a26f0e9d4b53d73870220725b930ae1de55cb40dae229e2f3f446e60c94da3afc907c03a4f831b6bd82e40147304402207b57bfe7c99fce1cc29a957f106f9e5cf389a4f1b18bf5695822e4c8f02a99f802206af8b8ffd2f2aebdb0b704837259833341beff894b17c264461d679717bc5d86014c695221029cd9c7df6ba11f173f3d0b9db8f6d228c64ad9c76effb4a334f6ad401fff6324210334e8a5998704b0371233e97a2fbf0f3cd0b66894b6644b2eadf466e27959f27421026e4494155b7706ba1fdbc999c8124c03bc8b06e7c9c2f31efc60d2d205990dea53aeffffffff0180b2e60e000000001976a914f00264c627281ab0ef36a669ff9deeaf28f0143888ac00000000

→ c5e2bcf354d29616869284615806e0e0efa5f1b6e80cc8ce943161f46dd6df09
</code></pre></div></div>

<p>This is the TXID of the spent transaction from the address <code class="highlighter-rouge">3Q29ysL3DNsnyybhy8ErfeqfPTDhvgUN62</code>. The user owning <code class="highlighter-rouge">AdevgrKr8CnxqywbwTCC2So4WgKwb9jNEE</code> will receive 2.5 ANC.</p>

<p><strong>WARNING:</strong> Using this method, always spend all the fund from the multisig address in one transaction only, otherwise the excess fund will be donated back to the miners!</p>

    <p class="spacer"></p>
    </div>
</div>
</div>
</section>
<!-- Footer -->
<footer class="text-center">
    <div class="footer-above">
        <div class="container">
            <div class="row">
                <div class="footer-col col-md-4">
                    <h3>Contact</h3>
                    <p>
                         info@anoncoin.net
                        <br> 
                    </p>
                </div>
                <div class="footer-col col-md-4">
                    <h3>Around the Web</h3>
                    <ul class="list-inline">
                        
                        <li>
                            <a href="https://twitter.com/anoncoinproject" class="btn-social btn-outline">
                                <i class="fa fa-fw fa-twitter"></i>
                            </a>
                        </li>
                        
                        <li>
                            <a href="https://www.facebook.com/Anoncoin/" class="btn-social btn-outline">
                                <i class="fa fa-fw fa-facebook"></i>
                            </a>
                        </li>
                        
                        <li>
                            <a href="https://www.reddit.com/r/Anoncoin/" class="btn-social btn-outline">
                                <i class="fa fa-fw fa-reddit"></i>
                            </a>
                        </li>
                        
                        <li>
                            <a href="https://www.youtube.com/channel/UCwKSmUNcoRrBwm-kdsl1n2w" class="btn-social btn-outline">
                                <i class="fa fa-fw fa-youtube"></i>
                            </a>
                        </li>
                        
                        <li>
                            <a href="https://github.com/Anoncoin/anoncoin" class="btn-social btn-outline">
                                <i class="fa fa-fw fa-github"></i>
                            </a>
                        </li>
                        
                    </ul>
                </div>
                <div class="footer-col col-md-4">
                    <h3>Chat with us</h3>
                    <p>
                            <a href="https://join.slack.com/t/anoncoin/shared_invite/enQtMjcxMzUxMjk5ODYwLTU0OTJhNmIxNzYyY2JiMzUxOGZhMjYzNmQ3YmViNWM1OWIxZGNlMGY0Zjg1NzdhMDAyZmRiYTFhNTM1OWZiYTU
                            " class="btn btn-lg btn-outline">
                                <i class="fa fa-slack"></i> Join our Slack
                            </a>
                    </p>
                </div>
            </div>
        </div>
    </div>
    <div class="footer-below">
        <div class="container">
            <div class="row">
                <div class="col-lg-12">
                    Copyright &copy; Anoncoin 2018
                </div>
            </div>
        </div>
    </div>
</footer>

<!-- Scroll to Top Button (Only visible on small and extra-small screen sizes) -->
<div class="scroll-top page-scroll visible-xs visible-sm">
    <a class="btn btn-primary" href="#page-top">
        <i class="fa fa-chevron-up"></i>
    </a>
</div>

    <!-- jQuery Version 1.11.0 -->
<script src=" /js/jquery-1.11.0.js "></script>

<!-- Bootstrap Core JavaScript -->
<script src=" /js/bootstrap.min.js "></script>

<!-- Plugin JavaScript -->
<script src=" /js/jquery.easing.min.js "></script>
<script src=" /js/classie.js "></script>
<script src=" /js/cbpAnimatedHeader.js "></script>

<!-- Custom Theme JavaScript -->
<script src=" /js/freelancer.js "></script> 
    </body>
</html>